:020000040800F2
:10000000000003205D060008ED230008EF23000830
:10001000F1230008F3230008F52300080000000086
:10002000000000000000000000000000117F000838
:10003000F723000800000000A17F0008C577000832
:10004000AD060008AD060008AD060008AD060008C4
:10005000AD060008AD060008AD060008AD060008B4
:10006000AD060008AD060008AD060008AD060008A4
:10007000AD060008AD060008AD060008AD06000894
:10008000AD060008AD060008AD060008AD06000884
:10009000AD060008AD060008AD060008AD06000874
:1000A000AD060008AD060008AD060008AD06000864
:1000B000AD060008AD060008AD060008AD06000854
:1000C000AD060008AD060008AD060008AD06000844
:1000D000AD060008AD060008AD060008AD06000834
:1000E000AD060008AD060008AD060008AD06000824
:1000F000AD060008AD060008AD060008AD06000814
:10010000AD060008AD060008AD060008AD06000803
:10011000AD060008AD060008F9230008AD0600088A
:10012000AD060008AD060008AD060008AD060008E3
:10013000AD060008AD060008AD060008AD060008D3
:10014000AD060008AD060008AD060008AD060008C3
:10015000AD060008AD060008AD060008AD060008B3
:10016000AD060008AD060008AD060008AD060008A3
:10017000AD060008AD060008AD060008000000004E
:10018000AD060008AD060008AD060008AD06000883
:10019000AD060008AD060008AD060008AD06000873
:0C01A00005240008AD060008112400082A
:1001B00010B5054C237833B9044B13B10448AFF3A1
:1001C00000800123237010BD800300200000000088
:1001D0007446020808B5034B1BB103490348AFF34B
:1001E000008008BD0000000084030020744602085F
:1001F00001F0FF01102A2BDB10F0070F08D010F8D8
:10020000013B013A8B422DD010F0070F42B3F6D1DB
:10021000F0B441EA012141EA014122F007047FF0F4
:1002200000070023F0E80256083C85EA010586EA4B
:10023000010685FA47F5A3FA87F586FA47F6A5FA87
:1002400087F68EB9EED1F0BC01F0FF0102F0070293
:1002500032B110F8013B013A83EA010313B1F8D13E
:100260000020704701387047002D06BF354603381F
:10027000073815F0010F07D1013015F4807F02BF58
:10028000013015F4C03F0130F0BC0138704700BFA9
:100290007BB972B90029BEBF00204FF0004106E0D3
:1002A00008BF00281CBF6FF000414FF0FF3000F086
:1002B000D3B9ADF1080C6DE904CE002909DB002BA0
:1002C0001ADB00F04DF8DDF804E0DDE9022304B0AC
:1002D0007047404261EB4101002B1BDB00F040F80E
:1002E000DDF804E0DDE9022304B0404261EB4101A6
:1002F000524263EB43037047524263EB430300F007
:100300002FF8DDF804E0DDE9022304B0404261EBA0
:1003100041017047524263EB430300F021F8DDF8DE
:1003200004E0DDE9022304B0524263EB430370476B
:1003300053B94AB9002908BF00281CBF4FF0FF314C
:100340004FF0FF3000F088B9ADF1080C6DE904CE34
:1003500000F006F8DDF804E0DDE9022304B07047A0
:100360002DE9F047089D8E4604468846002B4AD169
:100370008A42174662D9B2FA82F64EB1C6F120031C
:1003800001FA06F820FA03F3B74043EA0808B4403C
:100390004FEA174E1FFA87FCB8FBFEF1230C0EFB49
:1003A000118843EA084301FB0CF29A4209D9FB1871
:1003B00001F1FF3080F0EA809A4240F2E780023992
:1003C0003B449A1AA3B2B2FBFEF00EFB102243EAA2
:1003D000024300FB0CFC9C4509D9FB1800F1FF32DD
:1003E00080F0D6809C4540F2D3803B44023840EAFE
:1003F0000140A3EB0C0300211DB1F3400022C5E92D
:100400000032BDE8F0878B4205D90DB1C5E9000186
:1004100000210846F5E7B3FA83F1002946D1734578
:1004200002D3824200F20581841A6EEB030201209E
:100430009046002DE5D0C5E90048E2E7002A00F02B
:100440009080B2FA82F6002E40F0A4808A1A030C43
:100450004FEA174E80B2BCB20121B2FBFEFC0EFB8C
:100460001C2243EA024304FB0CF29A4207D9FB1810
:100470000CF1FF3802D29A4200F2E080C4469B1A87
:10048000B3FBFEF20EFB123340EA034302FB04F41B
:100490009C4207D9FB1802F1FF3002D29C4200F2C5
:1004A000CA8002461B1B42EA0C40A5E7C1F12006A8
:1004B0008B4022FA06F71F430EFA01F420FA06F3E6
:1004C0002EFA06FE4FEA1749234300FA01F81FFAF5
:1004D00087FCBEFBF9F01C0C09FB10EE44EA0E444D
:1004E00000FB0CFEA64502FA01F209D93C1900F105
:1004F000FF3A80F09C80A64540F2998002383C4447
:10050000A4EB0E041FFA83FEB4FBF9F309FB1344BA
:100510004EEA044403FB0CFCA44508D93C1903F142
:10052000FF3E80F08280A4457FD9023B3C4443EAF1
:100530000040A4EB0C04A0FB02EC64457346E146CA
:1005400062D35FD05DB1B8EB030264EB090404FA37
:1005500006F622FA01F31E43CC40C5E900640021EF
:100560004FE7B1FBF2FC010C41EA0E4180B240EAD8
:1005700001423B4638463C46B846BE462026B1FBC3
:10058000F7F1A2EB080241EA0C4166E7014618E7E1
:1005900010462CE7C6F120022EFA02F3B740B14014
:1005A00020FA02F24FEA174E0A43B3FBFEF8BCB240
:1005B0000EFB1833110C41EA034108FB04F9B0406B
:1005C00089454FEA104380B23ED9791808F1FF3CC3
:1005D00001D289451FD8A1EB0901B1FBFEF909FB46
:1005E00004F80EFB191192B242EA0142424529D2A7
:1005F000BA1809F1FF31C4D24245C2D2A9F10201B1
:100600003A44BEE7F0459DD2BEEB02036CEB070C0B
:100610000138E14696E7A7EB09094944A8F1020C25
:10062000B1FBFEF909FB04F8DBE773467FE75046B0
:1006300066E70846FDE63B44023A33E7ACF1020CBC
:100640003B441CE749469CE7A1EB0901C446B1FBCA
:10065000FEF909FB04F8C4E7704700BFDFF834D0A7
:10066000002103E00C4B5B58435004310B480C4B0A
:1006700042189A42F6D30B4A02E0002342F8043BA8
:10068000094B9A42F9D304F01FFE23F085FA01F0DA
:10069000E7F8704700000320C0C10F0800000020E9
:1006A000700100208003002004450120FEE7704710
:1006B00008B500F0B9FDBDE8084000F03DBD00F010
:1006C000B5BD704710B50421044622F079F82046E4
:1006D00010BD000038B50C4B0C4C18800C4B822020
:1006E00019806368984740F6110398420AD1094D72
:1006F00023682C60822098472B688220DB6898470B
:10070000002038BD0120FCE7A6030020580000208F
:10071000A4030020A80300204FF4A071F020FFF7ED
:10072000D9BF0000F7B5394D2B6804461B698220FC
:100730009847208000284ED02B680DF106025B6997
:1007400001A982209847324B1B78002B4BD0BDF873
:10075000062040F674639A423FD9ADF80630BDF8E2
:1007600006209B1A9BB20A2B42D90B22B3FBF2F351
:10077000284A1288934201D9013A93B2BDF8042065
:10078000254840F6B8318A4234D8C2F571620E323B
:10079000016892B20F25B2FBF5F2204D2D88AA42D6
:1007A00084BF05F1FF35AAB28A4215468EB22AD916
:1007B000921B91B21A4E3768BB42BAB28CBF9A1ADA
:1007C000D21A92B211440529C4BF05603360036890
:1007D00063803368A38003B0F0BDB32A9CBFB4220A
:1007E000ADF80620BBE7BDF80630A3F5B473B9E752
:1007F0000023C3E7C2F56D62083292B20E2A016887
:10080000C8D800252A46891A89B2D3E7A803002050
:1008100030220020A4030020A0030020A603002013
:100820009C03002037B568460D461446FFF77AFF53
:10083000BDF8000030B1BDF802302B60BDF80430C7
:100840002360012003B030BD032821D8DFE800F089
:10085000020B12190F4B1A68B2FA82F252090421E4
:100860000D4804F0C5BF0B4B5A68B2FA82F2520928
:100870000821F5E7074B9A68B2FA82F25209102173
:10088000EEE7044BDA68B2FA82F252092021E7E778
:10089000704700BFAC03002000100240032821D89D
:1008A000DFE800F0020B12190F4B1A68003A18BF6C
:1008B000012204210D4804F09BBF0B4B5A68003AFB
:1008C00018BF01220821F5E7074B9A68003A18BFC4
:1008D00001221021EEE7044BDA68003A18BF01222A
:1008E0002021E7E7704700BFAC0300200010024062
:1008F00003280DD8DFE800F00206080A04210548A5
:1009000004F07BBF0821FAE71021F8E72021F6E781
:10091000704700BF0010024008B5032811D8DFE877
:1009200000F0020A0C0E0421074804F05BFF431E8E
:100930005842584108BD0821F6E71021F4E720216C
:10094000F2E70020F3E700BF0010024070B5084D49
:1009500000240126E0B2FFF7DFFF18B12B68012B5E
:1009600018BF2E600134052C05F10405F2D170BDCD
:10097000AC030020012380F8781080F879307047AC
:100980007047002070470000034B4164003918BFD6
:1009900001211970704700BFC33701207047002044
:1009A0007047836B0BB10846184770474FF6FF70CE
:1009B0007047406803689B691847704770477047E5
:1009C0007047704710B5044600F046FD23680349A0
:1009D000D3F890302046BDE810401847000000D002
:1009E00008B503680446D3F8843098472368204646
:1009F000DB6F984700F0ECF8236820465B6F984760
:100A0000292001F013FA00F0E3F8236820465B6F19
:100A10009847F8E710B504460AF02AF923682046FB
:100A2000D3F8BC30BDE81040184700F0F9BC00F026
:100A3000FDBC00F02FBD00F0CFBC00F03FBD00F0CA
:100A400047BD00F0D3BC09F041BB10B5842104467A
:100A500021F0B6FE204610BD10B590F8341090F885
:100A600078400C4B8C421A7809D03AB90A4A0B49A3
:100A70001488088810800C8001221A7010BD002A8A
:100A8000FCD0054A05491488088810800C80002293
:100A9000F3E700BFBC370120B8370120BA37012087
:100AA00070B50D46194635B9094B0A4A0A4840F255
:100AB000FF2122F0C1FDC0E90F52084B003A18BFD8
:100AC00001221A700368BDE87040D3F890301847CF
:100AD000E44602081C4702086A470208C2370120A0
:100AE00008B5094B1B888B4203D8084B1B889342DF
:100AF00005D9074B074A0848A32122F09DFD074B63
:100B00001980074B1A8008BDB8370120BA37012079
:100B1000AF470208124802086A470208BE370120A0
:100B2000C0370120034690F87A0018B1586803686E
:100B30001B68184770470000012108B500220846CD
:100B400006F0E2FE0A4B186028B90A4B0A4A28212F
:100B50000A4822F071FD00220421012006F07CFFEA
:100B6000074B186018B9074B034A2C21F0E708BD62
:100B7000C0030020554802089E480208CD480208DC
:100B8000BC03002011490208024B4FF0FF311868E6
:100B900006F004BFC0030020014B186806F02ABF0E
:100BA000C0030020024B0021186806F0F7BE00BF0A
:100BB000C0030020FFF7F0BF03480449006800238A
:100BC0001A4606F084BF00BFBC03002004000020CA
:100BD00013B5084C00231A4601A9206806F0A8FFA7
:100BE00020684FF0FF33002201A906F0A1FF02B0F8
:100BF00010BD00BFBC03002003685B6C18470120D8
:100C0000704703689B6A1847FEE740F2EF30704771
:100C1000054B0360054B4FF08062C3F88820BFF39B
:100C20004F8FBFF36F8F70474055020800E100E01F
:100C300010B504464FF45A61FFF7EAFF204621F051
:100C4000BFFD204610BD000082B0002301930E4B73
:100C50001A6B42F400021A631A6B02F4000201924A
:100C6000019A1A6942F400021A611A6922F4000218
:100C70001A61064B064A1A61064A5A61064B4FF042
:100C800080629A6002B0704700380240D42300208E
:100C9000E90E0008090C000800E100E008B50A2888
:100CA00009D8DFE800F006100E0808080810101038
:100CB0001000022008BD054B054A0648902122F08D
:100CC000BBFC0020F6E70120F4E700BF534902080F
:100CD0006E490208B949020838B50C46887FFFF70B
:100CE000DDFFA58AE28A164B2169586342EA054274
:100CF0005A64628BD963521B1A642568082D0ED181
:100D00009A611A615862207F0E4A42EA0062DA61F3
:100D1000E2681A620C4A5961D9601A6038BD002233
:100D2000D8611A61E1680A0A480902F4784200F4BD
:100D3000FC600243C1F3C4010A439A63034AECE72F
:100D400000B002400900010001230200012303005A
:100D500008B50B280BD8DFE800F00612100A0A0AC3
:100D60000A0808080808022008BD0520FCE7054B12
:100D7000054A06486F2122F05FFC0020F4E70120BD
:100D8000F2E700BF53490208FB490208B9490208CB
:100D90002DE9F04191F81D800C464046FFF7D8FF41
:100DA000A77F05463846FFF7D3FF06463846FFF7CC
:100DB00075FFA18A628B444B521A1A649A61228B86
:100DC000521A1A61E28A586342EA01425A6421695E
:100DD0006268D963DA602068802828D0227F0FD823
:100DE000202867D0402865D004281AD0364B45EA21
:100DF000026545F40035B845DD6161D0334A44E011
:100E0000B0F5807F04D0B0F5007FEFD1304800E02E
:100E1000304840EA0262DA61E2681A625E62596151
:100E200032E045EA026242F40032DA61F6E7A06895
:100E3000021DDA62227F45EA026545F40035DD6174
:100E40005E625961017841B1012921D0224B234AC8
:100E500023484FF48D7122F0EFFBDA69418822F4C8
:100E60007F42013922F0100242EA0122DA610121B7
:100E7000154BDA6942F02002DA61DA699206FCD495
:100E800010229A600029B9D0164A1A60BDE8F08194
:100E9000B2F1FF01DA69408822F47F4200F1FF30AD
:100EA00022F0100242EA002242F0100218BF012193
:100EB000DA61DDE745EA0262034B42F40032B4E74F
:100EC00042F20132E1E700BF00B00240012301001D
:100ED000090002000A000200454A02085F4A0208AF
:100EE000B949020801230200024B1B6858680368D5
:100EF0005B691847C437012070B5044625460A4B84
:100F00000C30002660602672667245F8203B602235
:100F100029460AF003F804F55A63EE6024359D4231
:100F2000FBD1204670BD00BF40550208034B1A6834
:100F3000D207FCD423229A60704700BF00B0024061
:100F40007047000030B50F4C2568ED07FCD4232511
:100F50000904A56041F001010225FF2B656361646E
:100F6000E0630AD00849656241EA0363E361074B25
:100F700022626061E060236030BDE561039BA36392
:100F8000034BF8E700B00240090001000100020035
:100F90000100030030B50E4C2568ED07FCD4232575
:100FA0001204A56042F001020225FF2B6563626412
:100FB000E063E16008D01B0643F00213E361054BD8
:100FC00065626061236030BD034BE3610123F9E793
:100FD00000B0024001000200020002FF30B50B4CDD
:100FE0002568ED07FCD4232512041B06A56043F4F5
:100FF0000033022542F0010265636264E063E16050
:10100000E361034B65626061236030BD00B0024064
:1010100001000200012070474020704700EB811062
:101020000830704700EB811008307047012070478E
:101030004FF44F6070474FF44F6303FB01000830DB
:1010400070474FF44F6303FB0100083070470120E5
:1010500070471020704700EB01100830704700EB1C
:10106000011008307047084601F042BC10B5034B30
:101070000360044608F081FD204610BDF8550208C3
:1010800010B50446FFF7F2FF2046482121F098FBF7
:10109000204610BD10B5034B0360044608F06DFDFB
:1010A000204610BDC455020810B50446FFF7F2FFF4
:1010B000204640F6F84121F083FB204610BD000099
:1010C00010B5034B0360044608F057FD204610BDE1
:1010D0009055020810B50446FFF7F2FF204618218C
:1010E00021F06EFB204610BD10B5084B036004468E
:1010F00000F62450FFF7BAFF04F12C00FFF7CAFFF7
:1011000004F11400FFF7DCFF204610BD2C56020846
:1011100008B50248FFF7E8FF08BD00BF9C12002099
:1011200010B50446FFF7E0FF204640F6CC6121F001
:1011300047FB204610BD00002DE9F34101F0E2F924
:10114000054601F0E3F900240146234628462246DD
:10115000009412F083FA274B274A1A60204602F0C7
:101160003BFB264D264B274A27489A6012F0DEF9B2
:101170002B68BFF35B8FDB0735D4284621F022FBB9
:1011800088B3224C224B236004F5576604F1140007
:1011900004F12C0804F624576060C4F80880E76066
:1011A000266108F0EBFC1B4B6361404608F0E6FC4F
:1011B000194BE362384608F0E1FC184BC4F8243DB3
:1011C00004F66C5003F038F8224604F66C513046B1
:1011D00002F080FB304601F08BFB114822F04AFA06
:1011E000284621F0FBFA0F4802B0BDE8F041FFF7B6
:1011F000E9BB00BF283801204804002098120020D5
:10120000680400204C040020080000209C120020EC
:101210002C56020890550208C4550208F8550208D9
:1012200011110008C4030020704700000148FFF7B7
:10123000D7BB00BFC403002070B5264E264C274DF7
:10124000274B23603046FFF757FE284617F00CFB6C
:1012500024480FF0F9FE244B2448DC6000224FF4B0
:101260008071C3E9121222491A86C3E91A12214970
:1012700083F85820C3E91E011F49C3F880101F4995
:101280001F480B60F021C3E90422C3E90622C3E929
:101290000822C3E90A22C3E90E22C3E91022C3E9E6
:1012A0001422C3E917225A6683F870205A67C3E9EB
:1012B000016501801348018013484FF4A07101803B
:1012C0001248018012490A70012283F83420114A21
:1012D0001A6070BDF40400209412002068040020FD
:1012E000D44602084C040020C40300200000010181
:1012F00001000001000450001A001400C43701204E
:10130000B8370120BE370120BA370120C03701208D
:10131000BC370120545402080148FFF779BC00BFD4
:10132000F40400200020704781807047C18070471E
:10133000018170474181704770477047704770471F
:10134000704710B4C4880368121B84885B6D091B46
:1013500012B25DF8044B09B218474FF6FF73838150
:101360004FF0FF3303621368C361106070470020C1
:1013700070478B88838001207047704780F8261063
:10138000704790F82600704710B50022B1F9084068
:10139000B1F90A10028042808480C18010BD002211
:1013A000028042808280C28070470177704780ED62
:1013B000080A704780F82410704780F8251070479D
:1013C00001207047983070478C30704784307047E8
:1013D0007047704770470000034B902283F85A23F0
:1013E00083F85823704700BF00E100E0094A0A492A
:1013F000D3680A48C3F30A03013B9BB20B8011690F
:10140000C1F30A01013901801364536B43F00103F6
:1014100053637047006801406A2100206821002062
:10142000014BD3F8AC00704700680140024B012229
:10143000C3F8AC105A6270470068014010B52C2107
:10144000044621F0BDF9204610BD10B5BC2104466C
:1014500021F0B6F9204610BD70B5044608F08BFEA9
:1014600023689D6E0EF03EFB01462046A847236888
:10147000054AD3F88C502046AC460023BDE87040A6
:10148000A2F51631604700BF00B004D008F05ABE84
:1014900008F064BE08F020BE08F08FBF90F8252049
:1014A00012B103685B691847704790F825201AB19C
:1014B00090F8242002B1186070470000034B4FF0F1
:1014C00080629A604FF080729A60704700E100E09D
:1014D000084B4FF08062C3F88820BFF34F8FBFF3F3
:1014E0006F8F4FF08072C3F88820BFF34F8FBFF328
:1014F0006F8F704700E100E070B50023124E8380CB
:10150000124B0360336893F8582005460AB1D86C33
:1015100000B998680368DB6A98473368B0FA80F4CA
:10152000D86C640930B10368DB6A9847002808BFAB
:1015300044F001042CB9064B064A07482C2122F03E
:101540007BF8284670BD00BFC43701204056020812
:101550009D4A0208FB4A0208344B020870B5254E2A
:101560003568BFF35B8F15F0010540D1304621F09F
:1015700029F900283BD0204C204B256104F1340090
:10158000C4E90035C4E90255E584A562A58510F0DB
:1015900040F804F158000BF077F9194BA365204689
:1015A000184B40F8843BFFF7A7FF174BC4F8843073
:1015B0002433C4F88C304FF4C803C4E92835002321
:1015C000C4F8AC30C4F8B030C4F8B430C4F8B830A3
:1015D0000E480F4BC4F89050C4F89C50C4F8A85063
:1015E000C4F8983022F046F8304621F0F7F8024867
:1015F00070BD00BF6C21002070210020585F0208E0
:1016000060560208D85602080C5F0208D51300087D
:10161000EC5E020838B5184C23685BB3174B184AC8
:101620001B6C11888B4216D1164B198804F0E8FE0A
:10163000236893F86A200025013283F86A2083F832
:101640007C50FFF7B9FA206809F012FB2846BDE884
:101650003840FFF7F9B804F0D3FE24682368204629
:101660001B6A9847012384F87C300020BDE838408D
:10167000FFF714B938BD00BFC4370120006801402E
:101680006A2100206821002007B5064BADF806004E
:101690001B68054801220DF1060105F051FC03B05D
:1016A0005DF804FB0C00002080220020F7B53C4EC2
:1016B0003C4C306806F06CFA054678B904212046A7
:1016C00004F090F8002814BF4E2352238DF8043004
:1016D000306864232A4601A906F0F9F9324F3868C8
:1016E00006F056FA08210546204604F07BF802462B
:1016F00058B9002D14BF4E234C238DF8053038689F
:1017000064230DF1050106F0E2F9284F386806F070
:101710003FFA054680B91021204604F063F80028FE
:1017200014BF4E2355238DF80630386864232A46AB
:101730000DF1060106F0CBF91D4F386806F028FAC6
:10174000054680B92021204604F04CF8002814BF3B
:101750004E2344238DF80730386864232A460DF160
:10176000070106F0B4F90421204604F03BF8114BC0
:1017700008211870204604F035F80F4B102118701E
:10178000204604F02FF80D4B20211870204604F05D
:1017900029F80B4B1870642006F0AAF889E700BFFF
:1017A00040220020001002403C220020382200206D
:1017B0003422002017000020160000201500002011
:1017C0001400002030B595B0102200210AA822F0A4
:1017D0003AF91422002103A822F035F900241E4B07
:1017E00001941A6C42F080521A641B6C03F080530F
:1017F0000193019B194B02941A6842F440421A600B
:101800001B6803F4404302930122029B4FF4803390
:10181000CDE9082302254FF480030821CDE90E53BA
:101820004FF4B473CDE9101308A804231393129551
:1018300004F03EFE04F002FE0F23CDE903354FF421
:10184000A0504FF48053CDE90603052103A8059469
:1018500005F00AF815B030BD0038024000700040B5
:1018600080B59AB003F03EFDFFF7ACFF14220021D3
:101870000DA822F0E8F80024C74B00941A6BC74863
:1018800042F010021A631A6B02F010020092009AE2
:1018900001941A6B42F020021A631A6B02F02002C4
:1018A0000192019A02941A6B42F080021A631A6B39
:1018B00002F080020292029A03941A6B42F0040230
:1018C0001A631A6B02F004020392039A04941A6BCF
:1018D00042F001021A631A6B02F001020492049AA8
:1018E00005941A6B42F002021A631A6B02F00202AC
:1018F0000592059A06941A6B42F040021A631A6B1D
:1019000002F040020692069A07941A6B42F008020F
:101910001A631B6B03F00803224607933C21079BC5
:1019200003F066FF9E480122022103F061FF224678
:101930009B48042103F05CFF22469A484FF4405133
:1019400003F056FF01263C23CDE90D3693480F9452
:1019500003230DA90227109303F060FE90480DA900
:10196000CDE90D760425CDE90F4403F057FE8C48F0
:101970000DA9CDE90D56CDE90F4703F04FFE4FF409
:10198000405388480DA9CDE90D36CDE90F4703F046
:1019900045FE85480F940DA9CDE90D6403F03EFE88
:1019A0007E480DA9CDE90D54CDE90F6403F036FE54
:1019B00008237A487D4D0DA9CDE90D34CDE90F649A
:1019C0004FF0100803F02AFE74480DA9CDE90D84EC
:1019D000CDE90F6403F022FE202370480DA9CDE964
:1019E0000D34CDE90F6403F019FE22466B48402107
:1019F00003F0FEFE0DA940236848CDE90D36CDE980
:101A00000F4403F00BFE6A486A4B036003F0FCFCD2
:101A1000DFF8C0E1684B2C62C5E900E328464FF4CB
:101A20008043C5E90434C5E90244C5E9064404F02D
:101A3000EDF84146284604F031FBDFF89C81214651
:101A400028465E4D04F049FB4FF48273C5E90083DC
:101A50004FF400791823C5E9069328460A23C5E9FF
:101A60000244C5E90444C5E90844AC62EB6205F0F0
:101A70000BFA8F232246394649488DF824308DF8D9
:101A8000344003F0B5FE32464FF47A7309A9284674
:101A900005F056FA4FF47A7332460DA9284605F040
:101AA000FBFB324639463E48454D03F0A1FE9DF80A
:101AB0003430D32B04BF434B1E70434B0126C5E982
:101AC0000036102240230024C5E904234FF4C073DC
:101AD000C5E906344FF40063C5E908344FF40053F8
:101AE0004FF002084FF00409AB624FF0030A0723DE
:101AF0000DA928460827CDE90D83CDE90F93C5E947
:101B00000249CDE911A8CDF84C8005F0A1F84FF6B7
:101B1000FF7209A9284608940C94CDE90A76099623
:101B200005F0B6F8304603F009FC4FF6FF7209A93C
:101B30002846CDE90B64CDE9098705F0A9F84FF6F1
:101B4000FF7209A92846CDE90B94CDE909A705F054
:101B50009FF84FF40C730893089B0C934FF6FF7299
:101B600009A92846CDE909970B9605F091F840F2AE
:101B70006A51284605F0AAF8342221460DEB0200EE
:101B800021F061FF114D124B2C61C5E9003409238E
:101B9000C5E9053622E000BF0038024000100240CF
:101BA00000080240000C0240000002408023002098
:101BB0001424002000300240A08601008022002072
:101BC0004C22002030220020400100A0D82200201A
:101BD00000680140005C0040005001401D23C5E941
:101BE000073A40F20D1140F24313C5E9091340F2E0
:101BF000171040F24713C5E90B032846C5E9024414
:101C0000AC8685F8364004F003FBFF214FF4806C6E
:101C1000CDE91214F0220521CDE914C14FF4A073CF
:101C20000DA9CDE90E24CDE9164228462246314DB4
:101C30000D94CDE910381893ADF864408DF86640E6
:101C400004F0B1FB2C4B2B601B6898472B682B4D85
:101C5000DB6898472A4B2846C5E90034C5E9028469
:101C6000C5E90A48C5E90C4403F0DEFB31462846C5
:101C700003F090FCFEF71CFDFEF719FD05F0B0FD2A
:101C8000204A3146384605F0E7FE1F4B1F4A1860D0
:101C90003146384605F0E0FE1D4B1E4A18603146BD
:101CA000384605F0D9FE1C4B1C4A186031463846B0
:101CB00005F0D2FE1A4B1B4A186021461A4805F05F
:101CC000BBFD1A4B1A4A186021461A4805F0B4FDAC
:101CD000194B186005F096FD04F1804404F50434B6
:101CE0002046402103F089FD4FF4FA7003F026FBF3
:101CF000F6E700BF2C22002020000020D423002083
:101D000000B0024064570208402200204C570208ED
:101D10003C22002034570208382200201C570208B9
:101D200034220020A0570208AD16000848220020E7
:101D30007C570208BF060008442200207047704705
:101D40007FB5094B8DF817201B6802930DF1170220
:101D50000123009201930A460146044803F0FEFF66
:101D600007B05DF804FB00BF1000002080230020B6
:101D70007FB500238DF81730084B1B6802930A4685
:101D800001230DF11701009101930146044804F06D
:101D900075F89DF8170007B05DF804FB10000020EF
:101DA000802300201FB5084C24680092CDE901343F
:101DB0000A4601230146054804F060F8003818BFC0
:101DC000012004B010BD00BF1000002080230020BF
:101DD00003F0B4BA10B5064C00222046042103F0EB
:101DE00007FD20460122BDE81040042103F000BD9C
:101DF0000008024038B50B4D044601220A484FF452
:101E0000005103F0F5FC00220421284603F0F0FC09
:101E10002046FFF739FC28460122BDE8384004215E
:101E200003F0E6BC00080240000C024038B50B4D40
:101E3000044600220A484FF4005103F0D9FC002266
:101E40000421284603F0D4FC2046FFF71DFC284659
:101E50000122BDE83840042103F0CABC000802405A
:101E6000000C0240F7B5144E144F05460C463046A0
:101E70000022042103F0BCFC00224FF4005138463C
:101E800003F0B6FC2846FFF7FFFB0D4B0D481B681F
:101E9000224601A905F000FA384601224FF400510C
:101EA000019C03F0A5FC30460122042103F0A0FCB4
:101EB000204603B0F0BD00BF00080240000C024005
:101EC0000C0000208022002003F038BA0268034B87
:101ED0009A4201D103F020BA704700BF00100040C1
:101EE0007047000082B00E4B00220092596C41F402
:101EF00080415964596C01F480410091009901922C
:101F0000196C41F0805119641B6C03F080530193EC
:101F1000019B0F216FF0010002B003F035BA00BF42
:101F2000003802400268094B9A4282B00BD100236C
:101F30000193074B1A6B42F480521A631B6B03F434
:101F400080530193019B02B0704700BF00300240F4
:101F50000038024007B50F4B02689A4216D10022A2
:101F6000A3F5F0430192196B41F4000119631B6B57
:101F700003F40003019305215A20019B03F004FAA6
:101F80005A2003B05DF804EB03F030BA03B05DF8FB
:101F900004FB00BF00B002402DE9F043044689B0C5
:101FA0001422002103A821F04EFD2268244B9A42FE
:101FB00043D1244C244800250095236B43F00403AF
:101FC0002363236B03F004030093009B0195236BB1
:101FD00043F001032363236B03F001030193019B8F
:101FE0004FF012094FF400734FF001080327042645
:101FF00003A9CDE90339CDE90587079603F00EFB68
:102000004FF480731148079603A9CDE90339CDE950
:10201000058703F003FB0295236C43F4000323645C
:10202000236C03F400030293029B236A43F400032E
:102030002362236A23F40003236209B0BDE8F0831E
:10204000005C0040003802400008024000000240EE
:10205000F0B599B004461422002107A821F0F3FC42
:1020600030220DEB0200002121F0EDFC22685E4BD6
:102070009A4240F0B78008230C93C02310930423A6
:1020800012930CA84FF40033159304F0B5FC08B17B
:10209000FFF726FF554B5648002400945A6C42F037
:1020A00080625A645A6C02F080620092009A019435
:1020B0001A6B42F020021A631A6B02F0200201929E
:1020C000019A02941A6B42F001021A631A6B02F031
:1020D00001020292029A03941A6B42F002021A63FE
:1020E0001A6B02F002020392039A04941A6B42F0F4
:1020F00040021A631A6B02F040020492049A05949B
:102100001A6B42F004021A631A6B02F00402059281
:10211000059A06941A6B42F008021A631B6B03F0CF
:102120000803069302250E26069B0B964FF4806348
:1021300007A9CDE90735CDE9094503F06FFA41F666
:1021400058032C480B9607A9CDE907350927CDE997
:10215000094503F063FA032327480B9707A9CDE944
:102160000735CDE9094503F059FA4FF47063224869
:102170000B9607A9CDE90735CDE9094503F04EFADD
:102180004FF40C631D480B9607A9CDE90735CDE93F
:10219000094503F043FAC02319480B9607A9CDE976
:1021A0000735CDE9094503F039FA082315480B96A0
:1021B00007A9CDE90735CDE9094503F02FFA4FF41A
:1021C000A0530E480B9707A9CDE90735CDE909457E
:1021D00003F024FA58202246052103F0D5F85820B0
:1021E00003F004F919B0F0BD006801400038024066
:1021F00000140240000002400004024000180240A7
:1022000000080240000C024010B5044688B01422B9
:10221000002103A821F017FC2268144B9A4223D115
:1022200003F56843002101915A6C114842F4801271
:102230005A645A6C02F480120192019A02911A6B4C
:1022400042F020021A631B6B03F020030293029BEF
:102250004FF4607202230321CDE903230523CDE966
:10226000061303A903F0DAF908B010BD00500140CD
:10227000001402402DE9F04186B0002303932B4B5C
:102280001C68002C4FD14FF00108C3F80080284B88
:1022900000949A6B274842EA08029A639B6B03EA10
:1022A00008030093022703260C25009B01A94FF683
:1022B0003F03CDE90137CDE9046503F0AFF91E48CE
:1022C000059501A9CDE90187CDE9034603F0A6F9FB
:1022D00048F233131948059501A9CDE90137CDE935
:1022E000034603F09BF94FF683731548059501A942
:1022F000CDE90137CDE9034603F090F94CF20373C1
:102300001048059501A9CDE90137CDE9034603F051
:1023100085F960230C48059501A9CDE90137CDE980
:10232000034603F07BF906B0BDE8F0811C240020D1
:102330000038024000140240000802400018024029
:1023400000100240000C02400004024070B588B04A
:1023500000230293204B1A6C42F010021A641B6C8B
:1023600003F010030293054601A903A8029B04F0A1
:1023700025FB069B4BBB04F011FB184E184B33603A
:1023800040F2E733F360174BB0FBF3F3013B7360AC
:10239000304600233361B360B36105F04DF9044664
:1023A00080B9304605F01EF8044658B9362003F0CF
:1023B0001DF80F2D0DD822462946362002F0E4FFE5
:1023C000094B1D60204608B070BD04F0E7FA4000DC
:1023D000D3E70124F6E700BF0038024020240020A4
:1023E0000010004040420F00880000207047FEE7C8
:1023F000FEE7FEE7FEE77047014805F031B800BF91
:1024000020240020014803F071BF00BFD822002023
:10241000014803F035B800BFD423002001207047E5
:1024200008B521F0B3FB162303604FF0FF3008BD61
:1024300008B521F0ABFB16230360FEE770B50D462F
:1024400014460E46731B9C4201DC204670BDAFF360
:10245000008006F8010BF5E770B50D4614460E46F0
:10246000731B9C4201DC204670BD16F8010BAFF3D4
:102470000080F5E74FF0FF3070474FF400534B609A
:102480000020704701207047002070470A4A1168F9
:1024900008B5034609B90949116010686946034443
:1024A0008B4206D921F072FB0C2303604FF0FF3002
:1024B00008BD1360FCE700BF682400200845012028
:1024C000704708B5042914D8DFE801F00F03070BA3
:1024D0000F0001F0CDF9406808BD01F0C9F980682E
:1024E000FAE701F0C5F9C068F6E701F0C1F9006844
:1024F000F2E70020F0E710B50421044620F060F96F
:10250000204610BD00487047D85702081620704773
:1025100013B5002451B1036801948DF8034001AA5A
:102520009C680DF10303A04702B010BD0846FBE70D
:10253000C0897047008A7047C0887047808870479C
:10254000807A00F07F007047807AC00970470020D1
:10255000704700009FED010A704700BF00000000B7
:10256000806A7047704710B50821044620F028F9AA
:10257000204610BD7047704700F598730868496899
:1025800003C370477047704741607047704770479A
:10259000064BC0F84C310023C0F8503100F5A2734F
:1025A000C0F84801C0F84031704700BF2927000833
:1025B0000123037270477047704710B4C2684168C6
:1025C0005410034601EB6200D20748BF0A599B68CA
:1025D0005DF8044B48BFD35818470346406830B1F4
:1025E0009A681AB9D86800F0010070470120704756
:1025F00010B50C21044620F0E3F8204610BD10B5BC
:102600001021044620F0DCF8204610BD10B54FF430
:10261000AE71044620F0D4F8204610BD10B540211C
:10262000044620F0CDF8204610BD10B50DF05AFA42
:102630000368BDE81040DB6B18470000054B1B78B2
:1026400001462BB1406818B103680C315B6E184726
:10265000704700BFC3370120037A70B50546BBB988
:1026600040680368DB69984704463CB968680368BA
:1026700005F10C011B6EBDE870401847A1886B8FF7
:10268000C91A236820461B6B09B29847A469ECE776
:1026900070BD10B50446D0F8400158B10368DB683E
:1026A000984738B1D4F8400103689B6898470023E5
:1026B000C4F8403110BD70B5044690F8390094F864
:1026C00038300130C0B2984284F8390005D901236E
:1026D0002372002384F8393070BDB4F93A20002108
:1026E0000FF000FCC30706D500284FF6FF73C8BFE4
:1026F0000123184400B2238AC01AA08760680368C7
:10270000DB69984705462DB960680368BDE87040ED
:102710005B691847A988A38F19442B6828461B6B4F
:1027200009B29847AD69EEE72DE9F14FD0E9556A56
:102730000746B06803681B6A9847EF2805D8444BE2
:10274000444AA321444820F077FF706803681B6A5D
:1027500098470F2803D8414B3E4AA421F2E7F0687E
:1027600003681B6A98470B2803D83D4B394AA521BB
:10277000E8E70DF0B7F9DFF8F09004300DF0F0F96C
:10278000D9F8000010B10368DB689847D9F8000059
:1027900010B103681B689847DFF8D080D8F80000B4
:1027A00010B103685B699847D7F83C0110B1036822
:1027B0005B689847D8F8000010B103681B68984719
:1027C000D7F83C0110B103689B689847F06803682C
:1027D00000215B6A98474FF0000B224BC0F804B011
:1027E000044680F808B00360B068036859465B6A25
:1027F0009847054601F014FD7068036859465B6A06
:1028000098472946064601F0EBFC331DC7F83C61AA
:10281000C9F80040C8F80050CAF800302B68C6F864
:1028200008A02846DB68EE639847336830461B688B
:102830009847214628460FF04FFB236820461B6926
:10284000984723685B69204601B0BDE8F04F184700
:10285000C74B0208554C02082D4D0208744D020862
:10286000174E0208145A02080C38012008380120BB
:10287000044B1B6893F858200AB1D86C00B99868CB
:10288000704700BFC4370120F8B5174604460E460E
:102890000DF034FA124B1C60124B2360124B0025D2
:1028A000C4E95135114BC4E9535518680368012137
:1028B0009B68C4E94F55C4E955769847284600F00F
:1028C0008BFFFFF7D5FF17F078FEFFF7D1FF17F06A
:1028D000EFFEFFF7CDFF17F0F7FE2046F8BD00BF73
:1028E00018380120C0590208A8590208C43701202D
:1028F000064BC0F84C310023C0F8503100F5A273EC
:10290000C0F84801C0F84031704700BF29270008CF
:10291000064BC0F84C310023C0F8503100F5A273CB
:10292000C0F84801C0F84031704700BF012B0008D3
:10293000064BC0F84C310023C0F8503100F5A273AB
:10294000C0F84801C0F84031704700BFC5290008F1
:102950002DE9F04105460026164B4660067245F803
:102960000C3B044628460F460AF036F8124B84F812
:1029700038701B7884F83960A68723B90123237245
:102980002046BDE8F0810D4B0D4FB3F90080E368A0
:10299000B7F900109B6B266128469847E3684146CB
:1029A000DB6B28469847284609F091FF3B885B423D
:1029B0006387E5E7385A0208C3370120BA37012098
:1029C000B83701202DE9F047D0E9556A0746B068CD
:1029D00003681B6A9847B0F54F6F05D2414B424AD6
:1029E000A321424820F028FE706803681B6A9847BC
:1029F0000F2803D83E4B3C4AA421F2E7F068036855
:102A00001B6A98473F2803D83A4B374AA521E8E785
:102A10000DF068F8DFF8E09004300DF0A1F8D9F877
:102A2000000010B10368DB689847D9F8000010B1C6
:102A300003681B689847DFF8C480D8F8000010B11D
:102A400003685B699847D7F83C0110B103685B687D
:102A50009847D8F8000010B103681B689847D7F86A
:102A60003C0110B103689B689847F0680368002137
:102A70005B6A984714210446FFF76AFFB068036851
:102A800000215B6A9847054600F086FF706803687E
:102A900000215B6A98472946064600F033FF331D44
:102AA000C7F83C61C9F80040C8F80050CAF80030C7
:102AB0002B68C6F808A02846DB68EE6398473368A1
:102AC00030461B689847214628460FF005FA2368D0
:102AD00020461B699847236820465B69BDE8F0479C
:102AE000184700BFC74B0208BA4E02082D4D020816
:102AF000744D0208174E02080C38012008380120D6
:102B00002DE9F047D0E9556A0746B06803681B6AAB
:102B10009847EF2805D8414B414AA321414820F06E
:102B20008BFD706803681B6A98470F2803D83E4BDB
:102B30003B4AA421F2E7F06803681B6A98473F28E4
:102B400003D83A4B364AA521E8E70CF0CBFFDFF873
:102B5000E09004300DF004F8D9F8000010B10368DB
:102B6000DB689847D9F8000010B103681B689847E4
:102B7000DFF8C080D8F8000010B103685B6998479F
:102B8000D7F83C0110B103685B689847D8F800009B
:102B900010B103681B689847D7F83C0110B103686F
:102BA0009B689847F068036800215B6A9847142186
:102BB0000446FFF7CDFEB068036800215B6A9847C2
:102BC000054601F02DFB7068036800215B6A984799
:102BD0002946064601F004FB331DC7F83C61C9F8DD
:102BE0000040C8F80050CAF800302B68C6F808A0AA
:102BF0002846DB68EE639847336830461B68984781
:102C0000214628460FF068F9236820461B6998473B
:102C1000236820465B69BDE8F0471847C74B0208A8
:102C2000A54F02082D4D0208744D0208174E0208E8
:102C30000C380120083801207047704770477047F2
:102C4000704730B5036885B06D460181D3F8843094
:102C5000014604462846984795E807003C3484E836
:102C6000070005B030BD30B5036885B06D464181C1
:102C7000D3F88430014604462846984795E8070073
:102C80003C3484E8070005B030BD00220280428059
:102C90008280C280704780F83610704770B5036834
:102CA00004461B6B154698472368294620465B6EF1
:102CB000BDE87040184700207047806C704770472F
:102CC00070477047704730B4C26844685510034677
:102CD00004EB6200D20748BF62599B6830BC48BF12
:102CE000D35818470346406830B19A681AB9D86873
:102CF00000F0010070470120704710B54C210446D8
:102D00001FF05EFD204610BD10B5102104461FF0D7
:102D100057FD204610BD10B54FF4307104461FF02A
:102D20004FFD204610BD08B5FEF7B8FB08BD0000FA
:102D3000036870B55E6B124B1B6804468DB22BB9ED
:102D4000104B114A6C21114820F076FC1049828DFD
:102D50000988914203D80F4B0B4A6D21F3E713F812
:102D600012200D4B1B6853F8220003681B6B984719
:102D7000291A3346204609B2BDE87040184700BF03
:102D80001C38012090500208D25002080D51020850
:102D9000203801205451020824380120F0308842A4
:102DA00008B505D10CF09EFEBDE80840FFF7B0BDA8
:102DB00008BD00224FF0FF31C0E90021826070475A
:102DC00070B5036804461B6B15469847236829466F
:102DD00020465B6BBDE87040184770B504461D4641
:102DE000BDF91060FFF7ECFF2368294620469B6B76
:102DF0009847236831462046DB6BBDE87040184792
:102E00000022C0E90122C0E90322C0E90522C0E98D
:102E100007224FF480728284014A0260704700BF2B
:102E20005C5A020838B5262204460D46002120F0DF
:102E30000AFE2046FFF7E4FF064B23602B88E3845D
:102E4000FF23204684F8283029460AF068F92046F6
:102E500038BD00BF70610208F8B5194B018F1B889F
:102E60008B4206462AD9174B1B682BB9164B174ABB
:102E700017486C2120F0E0FB13F81120154B1B685C
:102E800053F82250144B186800F0E2FC2B680746F8
:102E90009B6B284698472B6804469B6C394628460E
:102EA00098472B6814FB00F45B6A3946284698471C
:102EB000A4B223181BB2A6F84630F8BD0023FAE7E7
:102EC000203801201C38012090500208D2500208FE
:102ED0000D510208243801202838012010B526227F
:102EE0000446002120F0AFFD2046FFF789FF0A4B82
:102EF000A3624FF6FF73A3854FF47F020023C4E95A
:102F00000C32064A226023874FF0FF32C4E91023B7
:102F1000E363A364204610BD98590208C45A02080E
:102F20002DE9F04F044693B0274600250EF028FE09
:102F3000CE4BE56347F8403B26222946384620F031
:102F400082FD3846FFF75CFFC94B236404F16C0B2C
:102F5000FF234FF6FF7684F86630A56610A9584621
:102F6000ADF84060FFF75EFF04F1980310A9184622
:102F70000593ADF84060FFF755FF04F1C40304F179
:102F8000F00810A918460693ADF84060FFF74AFF15
:102F900040460AF0FBF904F59C7304F5C27A184622
:102FA0000393FFF79BFF10A95046ADF84060FFF771
:102FB00039FFB04BC4F884314FF001094FF0FF33B3
:102FC000C4E96D3904F5E0730793C4F8B0514FF0CC
:102FD000FF3384F8BC5110A90798ADF84030FFF7D3
:102FE00021FF04F5F67310A918460893ADF8406068
:102FF000FFF718FF04F5067310A918460993ADF8FA
:103000004060FFF70FFF04F5117318460493FFF7B4
:1030100065FF994BC4E9AC34984BC4E9AE354FF425
:10302000A0732A46294638460093F023261DFFF751
:10303000D4FE4FF07F43A3663946304606F0B0FD1C
:103040002A4629465846FFF7BBFE4FF00303584671
:1030500010A9ADF840300AF062F85946304606F043
:103060009FFD2A4629460598FFF7AAFE4FF0020B5E
:103070000598ADF840B010A90AF051F8059930460E
:1030800006F08EFD2A4629460698FFF799FE069817
:10309000ADF8409010A90AF042F80699304606F0C3
:1030A0007FFD4046A0222621FFF78AFE0C230FA9B0
:1030B000404610AAADF83C30ADF8403009F0FDFEB6
:1030C0004FF004024046A4F82821FFF7C5FE4FF058
:1030D000FF3204F52C734146C4E94B22C4F8183181
:1030E000304606F05DFD22232946039800937222A4
:1030F000F023FFF772FED4F838310399D3F8843007
:10310000A4F86C510AAF4FF0FF32C4F8682138467A
:10311000984797E8070004F5BA7383E8070004F5B9
:1031200024730398A4F89052C4F8803110A94FF08A
:103130000303DFF86C81ADF84430CDF8408009F02E
:103140005FFE0399304606F02BFD50464A46D021DB
:10315000FFF736FE0B2250460A2109F02BFD5046A0
:10316000494609F03AFD514684F8AC5184F8A9511A
:10317000304606F015FD4A4607988621FFF720FEE7
:103180004FF0110A0798ADF840A010A909F0C7FF49
:103190000799304606F004FD4A460898A921FFF732
:1031A0000FFE0898ADF840A010A909F0B8FF0899E3
:1031B000304606F0F5FC4A460998CC21FFF700FEA0
:1031C0000998ADF840A010A909F0A9FF0999304667
:1031D00006F0E6FC1D2304220498009308216023D6
:1031E000FFF7FBFD4FF0FF33C4F87432D4F84432DC
:1031F0000499D3F88430A4F878523846984797E871
:10320000070004F5207383E807001D4B1B6804F5D5
:1032100029752BB91B4B1C4A60211C4820F00CFA65
:103220001B4B1B88012B03D81A4B174A6121F4E76B
:10323000194B4946186800F00BFB184A0346052154
:10324000284610F065F90498C4F88C5210A9CDF8FE
:103250004080ADF844B009F0D3FD3046049906F043
:103260009FFC204613B0BDE8F08F00BF6C5B0208E6
:10327000086102088C600208545B02089D2D00085A
:103280001C38012090500208925102080D5102088A
:10329000203801205451020828380120DD5102084D
:1032A00098590208406A7047806A704770478A8858
:1032B0000B8810B5D20A4C88C1699BB251F8220024
:1032C00043EA0443184410BD10B50446BAB1107B5C
:1032D00068B1537BD27A1B0203F4E0631A43236A7A
:1032E00003EB82031A888A4202D193F9020010BDCF
:1032F00005D8013880B204330028F3D1F7E7002065
:10330000F5E710B52C2104461FF05AFA204610BDEF
:1033100030B58BB00446BDF860500895BDF85C50E0
:1033200007959DF8505006959DF84C5005959DF8D1
:10333000485004959DF8445003959DF840500295DF
:103340009DF83C500195BDF8385000950EF01EFADE
:10335000064B2360159BE361169B2362199B6362F6
:103360001A9BA36220460BB030BD00BFA05B0208D1
:1033700070477047704730B4C268446855100346C0
:1033800004EB6200D20748BF62599B6830BC48BF5B
:10339000D35818470346406830B19A681AB9D868BC
:1033A00000F0010070470120704710B5102104465D
:1033B0001FF006FA204610BD10B5F02104461FF09C
:1033C000FFF9204610BD9830884208B505D10CF0B1
:1033D00089FBBDE80840FFF7ABBA08BD2DE9F7430C
:1033E00004460EF0CDFB444B2360444B0025C4E95A
:1033F00010354FF48072FF2304F16C07A4F86420A9
:1034000084F86630A4F890204FF6FF733C4AE266D9
:1034100004F19806A4F8923084F8943001A9384653
:10342000C4E91255C4E91455C4E91655C4E91C553C
:10343000C4E91E55C4E92055C4E92255E563256653
:10344000A566ADF8043009F06AFE304609F09EFF2B
:103450002C4BC4E938342C4B04F140082A46C4E90B
:103460003A3529464046FFF7ABFC4046F021FDF7D0
:103470005FFF40464FF4A071FDF75CFF04F10409C3
:103480004FF07F43A3664146484606F089FB2A4633
:1034900029463846FFF794FC01A93846ADF8045098
:1034A00009F03DFE3946484606F07AFB3046A02238
:1034B0002321FFF785FC042301AA6946ADF80030FB
:1034C00030460523ADF8043009F0F7FC3046A4F887
:1034D000D050FFF7C1FC4FF0FF33C4E9353304F19E
:1034E000E0034846C4F8C030314606F059FB204698
:1034F00003B0BDE8F08300BF205C02080861020849
:1035000070610208085C0208C733000870470000B9
:1035100030B5164D2C6814F001048FB0BFF35B8FEB
:1035200020D128461FF04EF9E0B13F230993104BFC
:103530000893104B104911480A940122CDE9064323
:103540000423CDE903320A230093CDE90B44CDE9EE
:1035500001440594FFF7DCFE094820F08BF828466B
:103560001FF03CF905480FB030BD00BF6C240020AF
:103570005478020884780208E0760208702400205B
:103580000D3500087047000030B5164D2C6814F05A
:1035900001048FB0BFF35B8F20D128461FF012F9D2
:1035A000E0B13F230993104B0893104B1049114889
:1035B0000A940122CDE906430423CDE90332142302
:1035C0000093CDE90B44CDE901440594FFF7A0FE3B
:1035D000094820F04FF828461FF000F905480FB0C1
:1035E00030BD00BF9C24002058780208887802086B
:1035F000F0760208A02400208535000870470000FE
:1036000030B5164D2C6814F001048FB0BFF35B8FFA
:1036100021D128461FF0D6F8E8B13F230993104B7B
:103620000893104B104911480A94CDE90643012232
:103630000423CDE90332182300931722CDE90B446C
:10364000CDE901440594FFF763FE094820F012F824
:1036500028461FF0C3F805480FB030BDCC24002029
:103660005C7802088C78020800770208D0240020D9
:10367000FD3500087047000030B5164D2C6814F079
:1036800001048FB0BFF35B8F20D128461FF09AF85A
:10369000E0B13F230993104B0893104B1049114898
:1036A0000A940122CDE906430423CDE903322823FD
:1036B0000093CDE90B44CDE901440594FFF728FEC2
:1036C00009481FF0D7FF28461FF088F805480FB0BB
:1036D00030BD00BFFC2400208078020890780208EA
:1036E0004478020800250020753600080020704745
:1036F000002070470EB403B503AB002153F8042B30
:1037000001930DF0C1FA02B05DF804EB03B070470D
:103710000CB407B504AB53F8042B01930DF0B4FAC5
:1037200003B05DF804EB02B070470000436C10B5C5
:10373000044673B3038F2BB9184B194AC521194896
:103740001FF07AFFC38E00EB43035B8C0BB30FF0CB
:1037500036F9238F012B03D8134B144ACB21EEE704
:10376000E28E531C9BB2092B194688BFA3F10A01B4
:1037700004EB410140F63F10498C814209D10A2BEC
:1037800004EB420228BF002304EB4303508C58840F
:1037900051842046BDE810400FF014B8E0510208F3
:1037A000E951020894520208DE520208EC52020863
:1037B0000EF0CFBF10B586B002AC84E806001A4602
:1037C0000AAB05930193099B00932146089B0BF0DC
:1037D00027FD06B010BD000038B518BB124B1348CA
:1037E0001C681349B4B12268224402606268224412
:1037F0000A60A26814440F4B00221A8000F038F8C7
:10380000054600F033F80C4B1C600C4B1D600C4B54
:10381000188007E00B4B03600B4B0B600B4B1C68D5
:10382000002CE8D138BD00BF38250020302500200D
:103830002C250020342500201C38012024380120AC
:1038400020380120A878020894780208EC78020851
:10385000044B1B6853F82100034B1B6803EB40002B
:10386000704700BF2C250020302500200520704720
:10387000004870473C25002010B5FFF785FE064C38
:103880002060FFF7F9FE6060FFF742FEA060FFF7DF
:10389000B7FEE06010BD00BF3C25002010B500243D
:1038A00004600C6014601C6010BD704710B54FF4CC
:1038B000AE7104461EF084FF204610BD10B50446CC
:1038C000D0F8580100F0BBFC2046BDE810400CF0D9
:1038D000A5B9000010B50446FEF7D6FF014B2360E2
:1038E000204610BD545C020870470438704770478A
:1038F00010B5102104461EF063FF204610BDA0F154
:103900000400F5E700228260024A02601832426039
:10391000C1607047A85C020870470000174B70B583
:103920000546036040F69844B4F52E6F1FD140F66B
:1039300028162B5928191B682C3C9847B442F8D1FB
:103940002B5928191B682C3C9847B4F5EE6FF7D11A
:103950004FF4EC642B5928191B683C3C9847B4F58C
:103960002C7FF7D12846FFF7ACF9284670BD2B59BC
:1039700028191B6898472C3CD6E700BFD05C02088A
:1039800010B50446FFF7CAFF20464FF44F611EF002
:1039900017FF204610BD00002DE9F04F04468DB002
:1039A000FFF7BEFA04F53077874B23604FF6FF79B7
:1039B00069463846ADF80090FFF734FA04F53B76D7
:1039C000DFF818B204F29C7A35464FF0000828461A
:1039D0006946ADF80090FFF725FA0123C5F800B05D
:1039E000C5F82C80A5F83090A5F8329085F83430D1
:1039F00085F8358085F8368085F8378085F83880F9
:103A00003C355545E3D104F654184FF6FF79284666
:103A100069462C35ADF80090FFF704FA4545F6D11C
:103A2000454604F60C394FF6FF7A284669462C3590
:103A3000ADF800A0FFF7F6F94D45F6D104F6C449FC
:103A40004FF6FF7A284669462C35ADF800A0FFF7FF
:103A5000E9F94D45F6D169464846ADF800A0FFF7B3
:103A6000E1F95A4B5A4D00221A805A4B4FF6FC622C
:103A70001A80594B4FF6666268461A8000F048FD7E
:103A8000BDF80430AB80BDF91C30039AAB83089BB2
:103A9000EA602B62049A099B2A616B62059A0A9B71
:103AA0006A6104F1040A069AAB626846BDF82C30DC
:103AB000AA61AB8500F03EFD504604F1F00106F02E
:103AC000B0F8504604F59C7106F0ABF81223694635
:103AD0003846ADF8003009F022FBB5F90E20B5F9F3
:103AE0000C103846FFF76CF95046394606F058F886
:103AF00040F29C754FF0070A6719212240F24111EC
:103B00003846FFF75DF9635969461B6EADF800A0B2
:103B1000384698472C3540F654139D42ECD121226B
:103B2000404640F24111FFF74BF9D4F854390E27C3
:103B30001B6EADF80070404604F51865694698475D
:103B40002846212240F24111FFF73AF9D4F8803992
:103B500028461B6EADF800706946984740F60C3554
:103B60004FF00F086719212240F241113846FFF744
:103B700027F9635969461B6EADF8008038469847AF
:103B80002C3540F6E8339D42ECD10025EB0755BFBC
:103B900008210A2109220B22304609F00BF80135D1
:103BA0003046142109F019F8142D06F13C06EDD128
:103BB000062348466946ADF8003009F0B0FA2046C1
:103BC0000DB0BDE8F08F00BFD05C02085225002088
:103BD0002C2A0020502500204E2500208C60020851
:103BE0002DE9F74F414F424E3B7804464BB3414BD2
:103BF0001B7833B3404D2B781BBB00F1F00700F16D
:103C000004083946404605F0CBFFB3883B4A0A21F9
:103C100004F5247004F59C740FF07AFC21464046AC
:103C200005F0BEFF38460DF059F920460DF056F963
:103C300001232B70324B186803B0BDE8F04F03F03E
:103C40003FBEDFF8D480B6F92C2098F800302D4D17
:103C50009A4227D0132301A904F53070ADF804303F
:103C600009F05DFA01222848402101F0C1FD1E2221
:103C700096F82C302A70502288F8003084F84022C0
:103C800084F8142284F8E821002B00F06182FF22DE
:103C9000012B84F8402205D0022B84F8142218BF8F
:103CA00084F8E8212A7822B1013A2A7003B0BDE8ED
:103CB000F08F1548154D164F402101F099FD15481C
:103CC0002A8801883B8801310132013389B292B2DE
:103CD0009BB201802A803B8001BB4FF6FC622A80A8
:103CE0000BBB4FF6C06303801DE000BF5F250020C3
:103CF0002C2A00205E2500204C250020BE530208FF
:103D00005825002054250020001002405025002096
:103D10004E2500205225002018000020002ADFD167
:103D20004FF66A733B8004F1C408B0F9002000210B
:103D30004046FFF745F840460DF0D0F804F19800F2
:103D4000B5F90020DFF8548300210546FFF738F865
:103D5000284604F16C050DF0C1F8B7F90020C54FF5
:103D600000212846FFF72CF828460DF0B7F84FF051
:103D7000000938688DF8039003F00AFF04F53075E8
:103D8000E0B14FF0FF3338684A460DF1030103F00C
:103D9000CFFE9DF80330522B40F00F81B6F928106A
:103DA000B54800F049FC1523284601A9ADF80430B8
:103DB00009F0B5F9D8F8000003F0ECFED8F80000DF
:103DC00003F0E6FEE8B14FF0FF33D8F80000002220
:103DD0000DF1030103F0ACFE9DF803304C2B40F0D5
:103DE000FB80B16AA448494209B200F025FC1423C3
:103DF000284601A9ADF8043009F091F9386803F0BC
:103E0000C9FE9E4FDFF89882386803F0C1FEA8B162
:103E10004FF0FF33386800220DF1030103F088FEF4
:103E20009DF80330552B40F0E6809348B6F92810F2
:103E300000F004FCD8F8000003F0ACFED8F8000055
:103E400003F0A6FEB0B14FF0FF33D8F80000002217
:103E50000DF1030103F06CFE9DF80330442B40F09C
:103E6000D280B16A8448494209B200F0E7FB386861
:103E700003F090FE2846B6F90E20B6F90C10804FDC
:103E8000FDF75FFA04F29C7504F6541904F1040876
:103E9000B7F91030022B00F0BE80042B00F0CC806C
:103EA000012B07D12B68B7F906209B6DB7F90410D9
:103EB000284698472C354D4507F12007E8D1714F2A
:103EC00004F6AC18B7F91030022B00F0BB80042BBD
:103ED00000F0C980012B07D12B68B7F906209B6D34
:103EE000B7F90410284698472C35454507F12007B7
:103EF000E8D1654D04F53B7704F5966AA04604F1D8
:103F00000409B5F91030022B00F0CC80042B00F02E
:103F1000E480012B08D1D8F8EC32B5F906209B6D6E
:103F2000B5F904103846984708F13C08D04505F12A
:103F3000200507F13C07E4D1544B1B7893B3544F51
:103F400004F60C3504F6E83904F10408B7F910302A
:103F5000022B00F0CD80042B00F0DB80012B07D179
:103F60002B68B7F906209B6DB7F9041028469847CF
:103F70002C354D4507F12007E8D1464DB5F91030F5
:103F8000022B04F1040800F0CA80042B00F0D98051
:103F9000012B07D1B5F90620B5F9041004F6C44089
:103FA000FDF7CFF9B3883C4A052104F529700FF0DD
:103FB000AFFA201D0CF092FF78E64E2B7FF4FEAE98
:103FC00049462D4800F038FB122301A92846ADF8D8
:103FD000043009F0A4F8F1E64E2B7FF412AF264826
:103FE000002100F029FB122301A92846ADF8043076
:103FF00009F095F805E74E2B7FF420AF1E4800210D
:1040000000F01CFB1AE74E2B7FF434AF1A48002156
:1040100000F014FB2EE72B68B7F906209B6DB7F96B
:104020000410284698472946404605F0B9FD01216D
:10403000384600F043FA3DE72946404605F0F1FDD9
:104040000321F5E72B68B7F906209B6DB7F904103B
:10405000284698472946201D05F0A2FD0121384633
:1040600000F02CFA40E72946201D05F0DAFD032177
:10407000F5E700BF40220020342A0020382200202B
:10408000EC280020AC2800202C2600205D250020F4
:104090006825002008260020BE5302083C2200208C
:1040A00034220020D8F8EC32B5F906209B6DB5F922
:1040B000041038469847D8F8EC32D3F864B001239E
:1040C0001A4600213846D8473946484605F068FD6B
:1040D0000121284600F0F2F926E7D8F8EC323846FC
:1040E0009B6E98473946484605F09BFD0321F0E753
:1040F0002B68B7F906209B6DB7F90410284698473E
:104100002946404605F04CFD0121384600F0D6F91D
:104110002EE72946404605F084FD0321F5E704F625
:10412000C447B5F90620B5F904103846FDF709F97A
:104130003946404605F034FD0121284600F0BEF91D
:1041400030E704F6C441404605F06BFD0321F4E777
:10415000034A0123201D13703B700CF0BFFEA1E544
:104160005E25002010B5114C8AB0FEF7ABFD20682B
:1041700003F0A6FB2022002102A81FF064FC0C4BD8
:1041800001934FF480421823CDE90623002101AAB0
:10419000084803F051FB084A206000231370074AC7
:1041A0001370074A13700AB010BD00BF58250020D5
:1041B000C1530208A94800085F2500205E250020A1
:1041C0004C250020704704387047704710B5102107
:1041D00004461EF0F5FA204610BDA0F10400F5E7F4
:1041E00000228260024A026018324260C160704759
:1041F000045D02087047000010B5034B03600446DD
:10420000FFF7B7F8204610BD2C5D020810B5044634
:10421000FFF7F2FF2046F0211EF0D2FA204610BD33
:1042200010B50446FFF7DAF8014B2360204610BDB5
:104230002C5D0208FFF79EB80022026070477047AD
:1042400010B5034B0360044600F024F9204610BD6E
:10425000605D020810B50446FFF7F2FF20462421F6
:104260001EF0AEFA204610BD10B5044600F01CF951
:10427000094B23604FF4167246F2A813C4E90623D3
:104280000649A3824FF48A7222840022C4E90212F2
:10429000034A2261204610BD605D020864005000A0
:1042A00003005802838864339BB2B3F5C37F05D8FB
:1042B000C38864339BB2B3F5EB7F01D90A4B4360EB
:1042C000438A591A09B2002941820BDC838882890A
:1042D00013448380C289C3881344C38083694382A3
:1042E0000120704700207047E0FF5000838A591A70
:1042F00009B20029D8BFC3698182DABF8382012055
:104300000020704790F820300B4480F82030704730
:1043100010B5034B0360044600F0BCF8204610BD06
:10432000745D020810B50446FFF7F2FF2046202115
:104330001EF046FA204610BD10B5044600F0B4F851
:10434000074B23604FF0181100224FF4C873C4E9E3
:104350000212044AA3612261A383204610BD00BF5C
:10436000745D020803009001B0F9083010B5B0F98F
:1043700004405B429C420BDBF02C09DCB0F90A30B4
:10438000B0F906205B429A4202DBB2F5A07F05DD60
:104390000423038283694382002010BD438A591A93
:1043A00009B200294182F7DC83891C44C3898480D7
:1043B0001A44838BC28043820120EEE7018142814F
:1043C000012070478183000010B5034B0360044651
:1043D00000F060F8204610BD885D020810B5044664
:1043E000FFF7F2FF204620211EF0EAF9204610BD1B
:1043F00010B5044600F058F8084B23604FF41672CD
:1044000046F2A813C4E906234FF020110022C4E9A4
:104410000212034A2261A382204610BD885D020871
:1044200003005802B0F9083010B5B0F904405B42FF
:104430009C420BDBF02C09DCB0F90A30B0F9062005
:104440005B429A4202DBB2F5A07F07DD04230382C0
:10445000C369838283694382002010BD438A591A4D
:1044600009B200294182F7DC83891C44C389848016
:104470001A448369C28043820120EEE7838A591A75
:1044800009B20029D8BFC3698182DABF83820120C3
:104490000020704770470020704710B5182104466F
:1044A0001EF08EF9204610BD034A026003220282EC
:1044B0004FF02012826070479C5D020801827047B5
:1044C0008180C28070478181C2817047B0F9042029
:1044D000B0F9083010B5B1F904401344A34215DD1A
:1044E000B1F9083023449A4210DAB0F90630B0F935
:1044F0000A20B1F906401A44A24207DDB1F90A20A8
:1045000022449342ACBF0020012010BD0020FCE7F4
:1045100010B5054B0360002304468380083000F08B
:1045200033F8204610BD00BFB05D020883881944EF
:104530008180704710B5044B044640F8083B00F0FA
:104540000FF8204610BD00BFB05D020810B504464C
:10455000FFF7F0FF204630211EF032F9204610BD53
:1045600010B5034B03600446FFF794FF204610BDCF
:10457000C05D020810B50446FFF7F2FF204628216F
:104580001EF01EF9204610BD10B50446FFF78CFF43
:1045900003210A482162A18409490A4B2360C4E926
:1045A00001014FF4C87342F210720021C4E90632CF
:1045B000E160A2826382204610BD00BF6800DC007B
:1045C00020001800C05D0208438A591A09B2002968
:1045D00041821FDC82888389C1891A44C38812B250
:1045E0000B441BB281698280002AC380418207DAB2
:1045F00000228280002B07DA0023C380012070474D
:10460000D02AF7DDD022F4E7B3F5907FF6DD4FF442
:104610009073F2E700207047838A591A09B2002983
:10462000D8BFC3698182DABF83820120002070472E
:10463000838C19448184704781817047C1817047A0
:104640002DE9F047DFF89CA0244CDAF80030DFF8C1
:104650009890DFF898801B1A0546CAF80030142697
:10466000B4F91030032B09D029462046FFF7DAFEB3
:10467000013E04F12004F3D1BDE8F087B9F804301D
:10468000642BF5D8DAF80030002BF1DCD8F80030D4
:1046900003F00102002A4FF6E0714FF6FF770CBFDE
:1046A000F0210127032B96BF0D4A0022D25C022B7A
:1046B000D4BF013300232046C8F80030FFF700FFC5
:1046C000002239462046FFF7FEFE02212046FFF772
:1046D000F5FE42F21073CAF80030C9E72C2600201C
:1046E000CC5D02081C0000202C2A0020642500203C
:1046F0002DE9F843014606461348144CDFF8508074
:10470000DFF85090FFF788FF04F5A0770546B4F96D
:104710001030032B08D031462046FFF725FE203409
:10472000BC42F4D1BDE8F88365B1B8F80020B9F80F
:104730000010103A204692B2FFF7C2FE0221204636
:10474000FFF7BCFE0025EAE7342A0020EC28002011
:1047500060250020622500202DE9F0411E4DDFF884
:104760007C8006461427B5F91040012C19D131463A
:104770002846FFF783FEA0B1B8F91030032B27D0ED
:10478000B8F93030032B0CD1EA88A98808EB44141F
:104790001032204692B2FFF793FE02212046FFF727
:1047A0008DFE013F05F12005DDD10C4CB4F9103030
:1047B000012B03D131462046FFF7D6FDB4F9303046
:1047C000012B07D131460648BDE8F041FFF7CCBDCB
:1047D0000024D9E7BDE8F0812C260020AC28002079
:1047E000CC28002010B5104CB4F91030032B014632
:1047F00004D02046BDE81040FFF754BD0B4B1B789A
:1048000083B1204628224FF6E071FFF759FE20467B
:1048100002210022FFF757FE20460221BDE810408A
:10482000FFF74CBE10BD00BF082600205D2500200C
:1048300070B51B4EB6F91030012B05461ED101464E
:104840003046FFF753FD174C50B122460023B2F912
:104850001010032913D00133052B02F12002F6D1E9
:10486000104C0526B4F91030012B03D129462046FF
:10487000FFF77AFD013E04F12004F3D170BDF28808
:10488000B18804EB431428323231204692B289B207
:10489000FFF716FE02212046FFF710FEE0E700BFFB
:1048A0000826002068250020A34B2DE9F74F00249F
:1048B000A24D1C704FF6CE7211462846FFF700FE3F
:1048C00028464FF6FB720021FFF7FDFD0134284614
:1048D0000321FFF7F3FD0A2C05F12005EAD1984CDE
:1048E0000025A0464FF6CE7211462046FFF7E8FDA0
:1048F000052220460021FFF7E6FD20460321FFF7B1
:10490000DDFD4FF47A712046FFF75CFD204606225C
:104910000A21FFF753FD2034002D6DD0894C00256E
:104920004FF6CE7211462046FFF7CAFD05222046FB
:104930000021FFF7C8FD20460321FFF7BFFD4FF41C
:104940007A712046FFF73EFD1422204611460135BC
:10495000FFF734FD052D04F12004E1D17A4F002446
:104960003D464FF6CE7211462846FFF7A9FD0134A9
:1049700028460321FFF7A2FD142C05F12005F0D1F4
:104980004FF6CE7211467148714DDFF8E0B1FFF776
:1049900097FD6E480321FFF791FD6C4B83F8204093
:1049A0000024B5F80490B8F910E0B8F930609BF82D
:1049B0000020B9F1640F21D9384614210023B0F941
:1049C00010C0BCF1030F18BF0133013900F1200002
:1049D000F5D1BEF1030F18BF0133032E18BF013309
:1049E00063B9554A5B4F012313709BF800000134F3
:1049F000002800F0BD80FEE7012573E70134002A9E
:104A0000D7D1012C544B534EDFF854A1D4BF1046DC
:104A10001446AA891A80514BEA891A80C8BF01201E
:104A20003070FFF70DFE31784D48FFF7CDFD30783F
:104A3000FFF75EFE3078FFF78FFE3E464FF0140919
:104A4000B6F91030012B63D151463046FFF73EFDD9
:104A500000285DD042484FF0FF31FFF7E9FD042107
:104A60003046FFF72BFD3E484FF482726821FFF776
:104A700027FD3E464FF01409B6F91030012B1AD12C
:104A8000DFF8B8A00A22BAF91030012B46D15146FE
:104A900030460192FFF71AFD019A00283ED004210A
:104AA0003046FFF70BFD04215046FFF707FD0521B7
:104AB0002846FFF73BFDB9F1010906F12006DBD1DD
:104AC000B8F91030012B2ED0B8F93030012B14D1A9
:104AD00023492448FFF7FAFC78B1224E20484FF0D2
:104AE000FF31FFF7A5FD04213046FFF7E7FC1C4826
:104AF0004FF482726821FFF7E3FCB5F92C30002BEC
:104B00003FF74FAF184A01238BF80030137048E786
:104B1000B9F1010906F1200692D1AAE7013A0AF19A
:104B2000200AB0D1C7E70E490548FFF7CFFC00289F
:104B3000CAD0034ED2E700BF5D250020EC2800203C
:104B4000AC280020682500202C2600200826002004
:104B50002C2A00205C2500206225002060250020F2
:104B6000342A0020CC2800205E2500205F2500206C
:104B70003F4AAB891380092C3E4AEB891380C4BF9E
:104B8000044601203870FFF72DFE39783A48FFF7C8
:104B90001BFD3878FFF7ACFD3878FFF749FE364942
:104BA0003648FFF793FC50B133484FF0FF31FFF721
:104BB0003FFD31484FF482726821FFF781FC304E8F
:104BC000DFF8B8A04FF00A08B6F91090B9F1010F5C
:104BD00041D131465046FFF779FC00283BD04FF0D9
:104BE000FF315046FFF78EFB04213046FFF766FC8D
:104BF000224B93F8203073BB20480421FFF75EFC62
:104C0000204B8BF8009083F800901F4EDFF86890DF
:104C10004FF00508B6F91030012B22D14946304635
:104C2000FFF754FCE8B114484FF0FF31FFF700FDE7
:104C300004213046FFF742FC0F484FF4827268218E
:104C4000FFF73EFCB5F92C30002B3FF7CEAE012329
:104C50008BF80030C9E6B8F1010806F12006B3D19F
:104C6000D3E7B8F1010806F12006D3D1EAE700BF87
:104C70006225002060250020342A0020082600201C
:104C8000EC2800205E2500206825002038B5134858
:104C9000134DFFF73DFC002428192034FFF74CFB8F
:104CA000B4F5A07FF8D10F480F4DFFF745FB0F4833
:104CB000FFF742FB002428192034FFF799FBB4F5D5
:104CC000207FF8D10A480B4DFFF7CEFA00242819AF
:104CD0002034FFF731FBA02CF9D138BD2C2A00205D
:104CE000EC280020AC2800202C260020CC28002016
:104CF00008260020682500201D4838B50624013C00
:104D0000A0F1200506D0D0F8803080305B6898474D
:104D10002846F4E71748FFF793FA17481524013C93
:104D2000A0F1200516D1154C204650F8203F5B68B5
:104D300098472046FFF7ECFA11480B24013CA0F1FC
:104D400020050FD0D0F8203100F590705B689847AF
:104D50002846F3E7D5F8803200F518705B6898476D
:104D60002846DCE7BDE838400648FFF7E3BB00BF54
:104D700068250020082600202C260020AC280020D2
:104D8000EC2800202C2A0020F02070474FF4A0705F
:104D900070472920FDF74AB82820FDF747B808B525
:104DA000FDF718F8CA20FDF741F8C320FDF722F8F7
:104DB0000820FDF71FF85020FDF71CF8CF20FDF765
:104DC00035F80020FDF716F8C120FDF713F8302064
:104DD000FDF710F8ED20FDF729F86420FDF70AF83B
:104DE0000320FDF707F81220FDF704F88120FDF7F6
:104DF00001F8E820FDF71AF88520FCF7FBFF0020FA
:104E0000FCF7F8FF7820FCF7F5FFCB20FDF70EF854
:104E10003920FCF7EFFF2C20FCF7ECFF0020FCF71B
:104E2000E9FF3420FCF7E6FF0220FCF7E3FFF72060
:104E3000FCF7FCFF2020FCF7DDFFEA20FCF7F6FF83
:104E40000020FCF7D7FF0020FCF7D4FFB120FCF7CF
:104E5000EDFF0020FCF7CEFF1B20FCF7CBFFB620B8
:104E6000FCF7E4FF0A20FCF7C5FFA220FCF7C2FF15
:104E7000C020FCF7DBFF1020FCF7BCFFC120FCF7D3
:104E8000D5FF1020FCF7B6FFC520FCF7CFFF45206B
:104E9000FCF7B0FF1520FCF7ADFFC720FCF7C6FFFD
:104EA0009020FCF7A7FF3620FCF7C0FFC820FCF7D6
:104EB000A1FFF220FCF7BAFF0020FCF79BFFB02017
:104EC000FCF7B4FFC220FCF795FFB620FCF7AEFF5D
:104ED0000A20FCF78FFFA720FCF78CFF2720FCF7A8
:104EE00089FF0420FCF786FF2A20FCF79FFF0020A3
:104EF000FCF780FF0020FCF77DFF0020FCF77AFF25
:104F0000EF20FCF777FF2B20FCF790FF0020FCF749
:104F100071FF0020FCF76EFF0120FCF76BFF3F20C4
:104F2000FCF768FFF620FCF781FF0120FCF762FF29
:104F30000020FCF75FFF0620FCF75CFF2C20FCF74D
:104F400075FFC820FCF7C0FF2620FCF76FFF01208B
:104F5000FCF750FFE020FCF769FF0F20FCF74AFF49
:104F60002920FCF747FF2420FCF744FF0C20FCF726
:104F700041FF0E20FCF73EFF0920FCF73BFF4E20CF
:104F8000FCF738FF7820FCF735FF3C20FCF732FFB8
:104F90000920FCF72FFF1320FCF72CFF0520FCF75E
:104FA00029FF1720FCF726FF1120FCF723FF002024
:104FB000FCF720FFE120FCF739FF0020FCF71AFF87
:104FC0001620FCF717FF1B20FCF714FF0420FCF74A
:104FD00011FF1120FCF70EFF0720FCF70BFF31201B
:104FE000FCF708FF3320FCF705FF4220FCF702FF27
:104FF0000520FCF7FFFE0C20FCF7FCFE0A20FCF766
:10500000F9FE2820FCF7F6FE2F20FCF7F3FE0F2018
:10501000FCF7F0FE1120FCF709FFC820FCF754FF55
:105020002920FCF703FFBDE808402C20FCF7FEBE5A
:1050300008B5FCF7CFFE0321D320FCF713FF80B2A5
:1050400008BD10B5C4B2022203212046FCF778FE49
:105050000A20FCF7BDFE204600220321FCF770FE6B
:10506000BDE810400220FCF7B3BE38B50446E4B2F8
:10507000FCF764FE00212046FCF77AFE012105467C
:105080002046FCF775FE40EA052080B238BD10B519
:10509000C4B240212046FCF76BFE030607D54C2125
:1050A0002046FCF765FE003818BF012010BD012224
:1050B0004B212046FCF744FE204600224B21FCF702
:1050C0003FFE0020F2E773B50423C4B20E46154636
:1050D000D7210DEB03022046FCF764FE019B1BBAAF
:1050E0001A0DC3F30B23328020462B8001224B2163
:1050F000FCF726FE00224B212046FCF721FE02B0E1
:1051000070BD000010B50A4A1378984204460DD0CD
:10511000517888420AD00BB141B90123D454FCF72D
:105120000DFE2046BDE81040FFF78BBF10BD00BF4D
:105130005C2A002010B5C4B209212046FCF718FEF5
:1051400040F00102D2B220460921BDE81040FCF730
:10515000F7BD10B5C4B209212046FCF709FE0921AC
:1051600000F0FE022046BDE81040FCF7E9BD38B56E
:10517000C4B20D4620460A21FCF7FAFD40EA0502BA
:10518000D2B220460A21BDE83840FCF7D9BD10B59F
:105190000446FCF7D4FD20461F21FFF7E8FF204618
:1051A000BDE81040FFF7C6BF38B5C4B20D46204673
:1051B0000A21FCF7DDFD20EA0502D2B220460A21D1
:1051C000BDE83840FCF7BCBD10B50446FFF7C1FF91
:1051D00020461F21BDE81040FFF7E6BF10B5C0B262
:1051E0000C460B21FCF7C4FD204010BD1F21FFF72A
:1051F000F5BF0A46C0B20B21FCF7A2BD1F21FFF785
:10520000F8BF38B5C4B20D4620461721FCF7B0FDF3
:1052100020EA0502D2B220461721BDE83840FCF74B
:105220008FBD70B5C4B2064604212046FCF7A0FD30
:10523000042100F0FB0205462046FCF781FD3046C4
:10524000F021FFF7DEFF05F0F80220460421FCF70D
:1052500077FD492220212046FCF772FD0220FCF751
:10526000B7FD204601222121FCF76AFD20469A2243
:105270004121FCF765FD204601224A21FCF760FD33
:10528000204601224B21FCF75BFD204600224B21EA
:10529000FCF756FD204601225621FCF751FD204621
:1052A00001225821FCF74CFD204601224021FCF749
:1052B00047FD2046FF220B21FCF742FDBDE8704070
:1052C0000220FCF785BD0000054BD3F8882042F48E
:1052D0007002C3F888204FF000629A60704700BFE8
:1052E00000ED00E008B50B4B1A6842F400721A603A
:1052F0001A6842F480621A601A6842F480721A6076
:10530000032000F02FF80020FDF720F8FCF7EAFD5D
:10531000002008BD003C0240034A044B11681B7882
:105320000B441360704700BF602A002084000020F7
:10533000014B1868704700BF602A002038B504464A
:10534000FFF7F6FF631C1CBF054B1B78054618BF13
:10535000E418FFF7EDFF431BA342FAD338BD00BFAB
:10536000840000200749CA6822F4E06203021204A4
:1053700003F4E063120C134343F0BF6343F40033C0
:10538000CB60704700ED00E0164B30B5DC68C4F32D
:105390000224C4F10703251D042B28BF0423062D76
:1053A0004FF0FF358CBF033C002405FA03F321EADC
:1053B0000303A54022EA0502A340002843EA0203B2
:1053C000ACBF00F16040084A4FEA0313B8BF00F0D9
:1053D0000F00DBB2AABF00F56140135480F8003320
:1053E00030BD00BF00ED00E014ED00E0002807DB59
:1053F000044A4109012300F01F00834042F8213094
:10540000704700BF00E100E010B5044650B1437999
:1054100003F0FF0213B90271FCF784FD01236371ED
:10542000002010BD0120FCE710B5044620B390F821
:10543000393003F0FF021BB980F83820FCF78AFDF1
:10544000022384F83930236861681A6822F44032F4
:105450000A431A605A6BA16822F007020A435A6392
:105460001A6CE1686FF30D020A431A6400200123ED
:10547000E06384F8393010BD0120FCE770477047C5
:10548000036870B55E681D68F207044614D5E90527
:1054900012D51A6822F480721A60C26B42F00102BF
:1054A000C26301229A60042380F83930002380F817
:1054B0003830436903B19847B20616D5AB0414D50A
:1054C00023681A6822F400521A6020229A60E36B63
:1054D00043F00203E363042384F83930002384F8A3
:1054E000383063690BB120469847300716D5290537
:1054F00014D523681A6822F400621A6008229A60A0
:10550000E36B43F00403E363042384F8393000239E
:1055100084F8383063690BB12046984772070BD581
:105520006B0509D523681A6822F480621A60042288
:105530009A602046FFF7A2FFB00714D5A90512D53F
:1055400023681A6822F400721A6002229A60E36BE0
:10555000E363012384F83930002384F83830236969
:105560000BB120469847F20613D5EB0411D52368FA
:105570001A6822F480521A6010229A60E36BE36387
:10558000012384F83930002384F838302046FFF7AF
:1055900076FF70BDF0B590F83820012A03464FF031
:1055A00002002BD0012283F8382083F8390003EB66
:1055B0000112D2E90740556A174F44EA0040093CFE
:1055C000012C9CBF05F07F4210434FEA01161A6878
:1055D00088BF40EA056091B9516A39400143516280
:1055E000012C9969916103D8596A21F07F41916238
:1055F0000122002083F8392083F83800F0BDD169FA
:1056000039400143D1619919012C896911619CBF0D
:1056100025F07F451562EBE7F0FFFC002DE9F74F21
:10562000DFF8BC916C4A00230D6801249C4004EA19
:105630000506AC4340F0B7804D68032705F003042E
:105640004FEA430807FA08FC671E012F6FEA0C0CAB
:1056500034D8876807EA0C0ECF6807FA08F747EADC
:105660000E078760476827EA060EC5F300179F40BC
:1056700047EA0E074760C76807EA0C0E8F6807FA0B
:1056800008F747EA0E07022CC76019D14FEAD30A80
:1056900000EB8A0A03F0070BDAF820704FEA8B0B55
:1056A0004FF00F0E0EFA0BFE27EA0E0E0F6907FAE7
:1056B0000BF747EA0E07CAF8207001E0032CDAD195
:1056C000076804FA08F407EA0C073C4315F4403F66
:1056D000046068D000240194D9F8444044F4804424
:1056E000C9F84440D9F8444023F0030707F1804744
:1056F00004F4804407F59C37019403F0030C019CEB
:10570000D7F808E04FEA8C0C0F2404FA0CF42EEAC8
:10571000040E324CA0424DD004F58064A0424BD020
:1057200004F58064A04249D004F58064A04247D0CB
:1057300004F58064A04245D004F58064A04243D0C3
:1057400004F58064A04241D004F58064A0423FD0BB
:1057500004F58064A0423DD004F58064A04214BFEB
:105760000A24092404FA0CF444EA0E04BC60946888
:10577000F74315F4801F0CBF3C4034439460D46859
:1057800015F4001F0CBF3C403443D460546815F43A
:10579000003F0CBF3C40344354601468ED0354BFD9
:1057A0003C40344314600133102B7FF43DAF03B011
:1057B000BDE8F08F0024D5E70124D3E70224D1E728
:1057C0000324CFE70424CDE70524CBE70624C9E76B
:1057D0000724C7E70824C5E7003C01400000024059
:1057E000003802400369194214BF012000207047AD
:1057F0000AB1816170470904FBE7436901EA0302CA
:1058000021EA030141EA02418161704701684B6965
:1058100013F480634FF0000210D06FF480634B618B
:105820002023026380F83D3080F83E20036C80F82E
:105830003C2043F00403036401207047184670477E
:105840002DE9F84606460F4691461D464FEA114A95
:105850003368BAF1010F0CBF5C699C6927EA040444
:10586000A4B2B4FA84F46409A14501D0002025E073
:105870006A1CEED0FFF75CFD089BC01AA84201D855
:10588000002DE5D13368BAF1010F0CBF5B699B694C
:1058900027EA03039BB2B3FA83F35B099945D7D197
:1058A00000232022336386F83D2086F83E30326C98
:1058B00086F83C3042F0200232640120BDE8F886D0
:1058C0002DE9F04104460F4616469846256868695A
:1058D00027EA000080B2C0B16B695A0517D52B6862
:1058E00043F400732B606FF480636B61202200230C
:1058F000236384F83D2084F83E30236C43F0040396
:105900002364002384F83C300120BDE8F081731C3F
:10591000DDD0FFF70DFDA0EB0800B04201D8002E4E
:10592000D4D123685A6927EA020292B2002ACDD064
:1059300000232022236384F83D2084F83E30236C2A
:105940001343DDE770B504460D46164623685B69D0
:105950001B0601D500201EE02046FFF757FFC8B9FF
:105960006A1CF3D0FFF7E4FC801BA84201D8002D8D
:10597000ECD123685B6913F08003E7D12022236315
:1059800084F83D2084F83E30226C84F83C3042F0AC
:1059900020022264012070BD2DE9F0431546026803
:1059A00085B0DDE90C789946136843F48073136081
:1059B0000E463B46CDF8008000224FF00111044610
:1059C000FFF73EFF236838B11B68DB0502D54FF4B3
:1059D00000732364032620E006F0FE061E611A49C8
:1059E00043463A462046FFF76BFFA8B92368039069
:1059F0005A6903929B690393424639462046039BAA
:105A0000FFF7A0FF064660B1236C042B01BF22689C
:105A1000136843F4007313600126304605B0BDE8F7
:105A2000F083B9F1010F236802D1EDB21D61F4E7F3
:105A30002A0A1A61394642462046FFF783FF0028AA
:105A4000E2D12368F1E700BF020001002DE9FF4722
:105A50009A46036815461A6842F480621A601A680A
:105A6000DDE90C7842F480721A600E463B46CDF8B0
:105A7000008000224FF001110446FFF7E1FE236889
:105A800038B11B68DB0544BF4FF400732364032067
:105A900021E05FFA86F906F0FE061E612B494346B7
:105AA0003A462046FFF70CFFA0B9236803905A69D5
:105AB00003929B690393424639462046039BFFF7B6
:105AC00041FF58B1236C042B01BF2268136843F4D3
:105AD00000731360012004B0BDE8F087BAF1010F34
